{
  "contractName": "HitchensUnorderedKeySet",
  "abi": [
    {
      "anonymous": false,
      "inputs": [
        {
          "indexed": false,
          "internalType": "address",
          "name": "sender",
          "type": "address"
        },
        {
          "indexed": false,
          "internalType": "string",
          "name": "action",
          "type": "string"
        },
        {
          "indexed": false,
          "internalType": "bytes32",
          "name": "key",
          "type": "bytes32"
        }
      ],
      "name": "LogUpdate",
      "type": "event"
    },
    {
      "constant": true,
      "inputs": [
        {
          "internalType": "bytes32",
          "name": "key",
          "type": "bytes32"
        }
      ],
      "name": "exists",
      "outputs": [
        {
          "internalType": "bool",
          "name": "",
          "type": "bool"
        }
      ],
      "payable": false,
      "stateMutability": "view",
      "type": "function"
    },
    {
      "constant": false,
      "inputs": [
        {
          "internalType": "bytes32",
          "name": "key",
          "type": "bytes32"
        }
      ],
      "name": "insert",
      "outputs": [],
      "payable": false,
      "stateMutability": "nonpayable",
      "type": "function"
    },
    {
      "constant": false,
      "inputs": [
        {
          "internalType": "bytes32",
          "name": "key",
          "type": "bytes32"
        }
      ],
      "name": "remove",
      "outputs": [],
      "payable": false,
      "stateMutability": "nonpayable",
      "type": "function"
    },
    {
      "constant": true,
      "inputs": [],
      "name": "count",
      "outputs": [
        {
          "internalType": "uint256",
          "name": "",
          "type": "uint256"
        }
      ],
      "payable": false,
      "stateMutability": "view",
      "type": "function"
    },
    {
      "constant": true,
      "inputs": [
        {
          "internalType": "uint256",
          "name": "index",
          "type": "uint256"
        }
      ],
      "name": "keyAtIndex",
      "outputs": [
        {
          "internalType": "bytes32",
          "name": "",
          "type": "bytes32"
        }
      ],
      "payable": false,
      "stateMutability": "view",
      "type": "function"
    },
    {
      "constant": false,
      "inputs": [],
      "name": "nukeSet",
      "outputs": [],
      "payable": false,
      "stateMutability": "nonpayable",
      "type": "function"
    }
  ],
  "bytecode": "0x608060405234801561001057600080fd5b5061058e806100206000396000f3fe608060405234801561001057600080fd5b50600436106100625760003560e01c806306661abd146100675780630e654c02146100815780632d287e431461008b57806338a699a4146100a85780638e0db0d9146100d957806395bc2673146100f6575b600080fd5b61006f610113565b60408051918252519081900360200190f35b610089610125565b005b610089600480360360208110156100a157600080fd5b503561018f565b6100c5600480360360208110156100be57600080fd5b50356101fa565b604080519115158252519081900360200190f35b61006f600480360360208110156100ef57600080fd5b5035610212565b6100896004803603602081101561010c57600080fd5b5035610224565b600061011f600061028f565b90505b90565b60408051632207bf4d60e11b8152600060048201819052915173__HitchensUnorderedKeySetLib____________9263440f7e9a9260248082019391829003018186803b15801561017557600080fd5b505af4158015610189573d6000803e3d6000fd5b50505050565b6101a060008263ffffffff61029616565b60408051338152808201839052606060208201819052600690820152651a5b9cd95c9d60d21b608082015290517fa4869f7c3fa4f122d4ca6781128192666d46e2b77aad294a632bd837170912349181900360a00190a150565b600061020c818363ffffffff61034216565b92915050565b600061020c818363ffffffff61038a16565b61023560008263ffffffff6103ae16565b604080513381528082018390526060602082018190526006908201526572656d6f766560d01b608082015290517fa4869f7c3fa4f122d4ca6781128192666d46e2b77aad294a632bd837170912349181900360a00190a150565b6001015490565b806102d25760405162461bcd60e51b81526004018080602001828103825260288152602001806104c86028913960400191505060405180910390fd5b6102dc8282610342565b156103185760405162461bcd60e51b81526004018080602001828103825260358152602001806105256035913960400191505060405180910390fd5b60018281018054918201815560009081526020808220830184905592815292909152604090912055565b60018201546000906103565750600061020c565b600082815260208490526040902054600184018054849290811061037657fe5b906000526020600020015414905092915050565b600082600101828154811061039b57fe5b9060005260206000200154905092915050565b6103b88282610342565b6103f35760405162461bcd60e51b81526004018080602001828103825260358152602001806104f06035913960400191505060405180910390fd5b60008260010160016104048561028f565b038154811061040f57fe5b600091825260208083209091015484835290859052604080832054828452922082905560018501805491935083918390811061044757fe5b600091825260208083209091019290925584815290859052604081205560018401805490610479906000198301610480565b5050505050565b8154818355818111156104a4576000838152602090206104a49181019083016104a9565b505050565b61012291905b808211156104c357600081556001016104af565b509056fe556e6f7264657265644b65795365742831303029202d204b65792063616e6e6f7420626520307830556e6f7264657265644b65795365742831303229202d204b657920646f6573206e6f7420657869737420696e20746865207365742e556e6f7264657265644b65795365742831303129202d204b657920616c72656164792065786973747320696e20746865207365742ea265627a7a72315820526aa44f7e97f4d195f8e3254ad73d2e6e5aecf1517657ecf77e22de3168656c64736f6c63430005100032",
  "source": "pragma solidity 0.5.16; \r\n\r\n/* \r\nHitchens UnorderedKeySet v0.93\r\n\r\nLibrary for managing CRUD operations in dynamic key sets.\r\n\r\nhttps://github.com/rob-Hitchens/UnorderedKeySet\r\n\r\nCopyright (c), 2019, Rob Hitchens, the MIT License\r\n\r\nPermission is hereby granted, free of charge, to any person obtaining a copy\r\nof this software and associated documentation files (the \"Software\"), to deal\r\nin the Software without restriction, including without limitation the rights\r\nto use, copy, modify, merge, publish, distribute, sublicense, and/or sell\r\ncopies of the Software, and to permit persons to whom the Software is\r\nfurnished to do so, subject to the following conditions:\r\n\r\nThe above copyright notice and this permission notice shall be included in all\r\ncopies or substantial portions of the Software.\r\n\r\nTHE SOFTWARE IS PROVIDED \"AS IS\", WITHOUT WARRANTY OF ANY KIND, EXPRESS OR\r\nIMPLIED, INCLUDING BUT NOT LIMITED TO THE WARRANTIES OF MERCHANTABILITY,\r\nFITNESS FOR A PARTICULAR PURPOSE AND NONINFRINGEMENT. IN NO EVENT SHALL THE\r\nAUTHORS OR COPYRIGHT HOLDERS BE LIABLE FOR ANY CLAIM, DAMAGES OR OTHER\r\nLIABILITY, WHETHER IN AN ACTION OF CONTRACT, TORT OR OTHERWISE, ARISING FROM,\r\nOUT OF OR IN CONNECTION WITH THE SOFTWARE OR THE USE OR OTHER DEALINGS IN THE\r\nSOFTWARE.\r\n\r\nTHIS SOFTWARE IS NOT TESTED OR AUDITED. DO NOT USE FOR PRODUCTION.\r\n*/\r\n\r\nlibrary HitchensUnorderedKeySetLib {\r\n    \r\n    struct Set {\r\n        mapping(bytes32 => uint) keyPointers;\r\n        bytes32[] keyList;\r\n    }\r\n    \r\n    function insert(Set storage self, bytes32 key) internal {\r\n        require(key != 0x0, \"UnorderedKeySet(100) - Key cannot be 0x0\");\r\n        require(!exists(self, key), \"UnorderedKeySet(101) - Key already exists in the set.\");\r\n        self.keyPointers[key] = self.keyList.push(key)-1;\r\n    }\r\n    \r\n    function remove(Set storage self, bytes32 key) internal {\r\n        require(exists(self, key), \"UnorderedKeySet(102) - Key does not exist in the set.\");\r\n        bytes32 keyToMove = self.keyList[count(self)-1];\r\n        uint rowToReplace = self.keyPointers[key];\r\n        self.keyPointers[keyToMove] = rowToReplace;\r\n        self.keyList[rowToReplace] = keyToMove;\r\n        delete self.keyPointers[key];\r\n        self.keyList.length--;\r\n    }\r\n    \r\n    function count(Set storage self) internal view returns(uint) {\r\n        return(self.keyList.length);\r\n    }\r\n    \r\n    function exists(Set storage self, bytes32 key) internal view returns(bool) {\r\n        if(self.keyList.length == 0) return false;\r\n        return self.keyList[self.keyPointers[key]] == key;\r\n    }\r\n    \r\n    function keyAtIndex(Set storage self, uint index) internal view returns(bytes32) {\r\n        return self.keyList[index];\r\n    }\r\n    \r\n    function nukeSet(Set storage self) public {\r\n        delete self.keyList;\r\n    }\r\n}\r\n\r\ncontract HitchensUnorderedKeySet {\r\n    \r\n    using HitchensUnorderedKeySetLib for HitchensUnorderedKeySetLib.Set;\r\n    HitchensUnorderedKeySetLib.Set set;\r\n    \r\n    event LogUpdate(address sender, string action, bytes32 key);\r\n    \r\n    function exists(bytes32 key) public view returns(bool) {\r\n        return set.exists(key);\r\n    }\r\n    \r\n    function insert(bytes32 key) public {\r\n        set.insert(key);\r\n        emit LogUpdate(msg.sender, \"insert\", key);\r\n    }\r\n    \r\n    function remove(bytes32 key) public {\r\n        set.remove(key);\r\n        emit LogUpdate(msg.sender, \"remove\", key);\r\n    }\r\n    \r\n    function count() public view returns(uint) {\r\n        return set.count();\r\n    }\r\n    \r\n    function keyAtIndex(uint index) public view returns(bytes32) {\r\n        return set.keyAtIndex(index);\r\n    }\r\n    \r\n    function nukeSet() public {\r\n        set.nukeSet();\r\n    }\r\n}\r\n",
  "sourcePath": "G:\\ERM6\\erm\\solidity\\contracts\\HitchensUnorderedKeySet.sol",
  "compiler": {
    "name": "solc",
    "version": "0.5.16+commit.9c3226ce.Emscripten.clang"
  },
  "schemaVersion": "3.0.21",
  "updatedAt": "2020-01-24T19:00:04.880Z",
  "devdoc": {
    "methods": {}
  },
  "userdoc": {
    "methods": {}
  }
}