{
  "contractName": "Report",
  "abi": [
    {
      "inputs": [],
      "payable": false,
      "stateMutability": "nonpayable",
      "type": "constructor"
    },
    {
      "anonymous": false,
      "inputs": [
        {
          "indexed": false,
          "internalType": "address",
          "name": "sender",
          "type": "address"
        },
        {
          "indexed": false,
          "internalType": "uint256",
          "name": "feeCharged",
          "type": "uint256"
        },
        {
          "indexed": false,
          "internalType": "uint256",
          "name": "timeStamp",
          "type": "uint256"
        }
      ],
      "name": "LateReport",
      "type": "event"
    },
    {
      "anonymous": false,
      "inputs": [
        {
          "indexed": false,
          "internalType": "address",
          "name": "sender",
          "type": "address"
        },
        {
          "indexed": false,
          "internalType": "bytes32",
          "name": "key",
          "type": "bytes32"
        },
        {
          "indexed": false,
          "internalType": "bool",
          "name": "signed",
          "type": "bool"
        },
        {
          "indexed": false,
          "internalType": "uint256",
          "name": "ph",
          "type": "uint256"
        },
        {
          "indexed": false,
          "internalType": "uint256",
          "name": "hardness",
          "type": "uint256"
        },
        {
          "indexed": false,
          "internalType": "uint256",
          "name": "tds",
          "type": "uint256"
        },
        {
          "indexed": false,
          "internalType": "string",
          "name": "companyName",
          "type": "string"
        }
      ],
      "name": "LogNewReport",
      "type": "event"
    },
    {
      "anonymous": false,
      "inputs": [
        {
          "indexed": false,
          "internalType": "address",
          "name": "sender",
          "type": "address"
        },
        {
          "indexed": false,
          "internalType": "bytes32",
          "name": "key",
          "type": "bytes32"
        }
      ],
      "name": "LogRemReport",
      "type": "event"
    },
    {
      "anonymous": false,
      "inputs": [
        {
          "indexed": false,
          "internalType": "address",
          "name": "sender",
          "type": "address"
        },
        {
          "indexed": false,
          "internalType": "bytes32",
          "name": "key",
          "type": "bytes32"
        },
        {
          "indexed": false,
          "internalType": "bool",
          "name": "signed",
          "type": "bool"
        }
      ],
      "name": "LogUpdateReport",
      "type": "event"
    },
    {
      "anonymous": false,
      "inputs": [
        {
          "indexed": false,
          "internalType": "address",
          "name": "sender",
          "type": "address"
        },
        {
          "indexed": false,
          "internalType": "uint256",
          "name": "amount",
          "type": "uint256"
        }
      ],
      "name": "NewDeposit",
      "type": "event"
    },
    {
      "anonymous": false,
      "inputs": [
        {
          "indexed": false,
          "internalType": "address",
          "name": "sender",
          "type": "address"
        },
        {
          "indexed": false,
          "internalType": "string",
          "name": "name",
          "type": "string"
        }
      ],
      "name": "NewUser",
      "type": "event"
    },
    {
      "constant": true,
      "inputs": [],
      "name": "admin",
      "outputs": [
        {
          "internalType": "address",
          "name": "",
          "type": "address"
        }
      ],
      "payable": false,
      "stateMutability": "view",
      "type": "function"
    },
    {
      "constant": true,
      "inputs": [],
      "name": "delayFee",
      "outputs": [
        {
          "internalType": "uint256",
          "name": "",
          "type": "uint256"
        }
      ],
      "payable": false,
      "stateMutability": "view",
      "type": "function"
    },
    {
      "constant": true,
      "inputs": [],
      "name": "maxDelay",
      "outputs": [
        {
          "internalType": "uint256",
          "name": "",
          "type": "uint256"
        }
      ],
      "payable": false,
      "stateMutability": "view",
      "type": "function"
    },
    {
      "constant": true,
      "inputs": [
        {
          "internalType": "bytes32",
          "name": "",
          "type": "bytes32"
        }
      ],
      "name": "reports",
      "outputs": [
        {
          "internalType": "bool",
          "name": "signed",
          "type": "bool"
        },
        {
          "internalType": "uint256",
          "name": "ph",
          "type": "uint256"
        },
        {
          "internalType": "uint256",
          "name": "hardness",
          "type": "uint256"
        },
        {
          "internalType": "uint256",
          "name": "tds",
          "type": "uint256"
        },
        {
          "internalType": "string",
          "name": "companyName",
          "type": "string"
        },
        {
          "internalType": "address",
          "name": "sender",
          "type": "address"
        },
        {
          "internalType": "uint256",
          "name": "timestamp",
          "type": "uint256"
        }
      ],
      "payable": false,
      "stateMutability": "view",
      "type": "function"
    },
    {
      "constant": true,
      "inputs": [
        {
          "internalType": "address",
          "name": "",
          "type": "address"
        }
      ],
      "name": "users",
      "outputs": [
        {
          "internalType": "address",
          "name": "account",
          "type": "address"
        },
        {
          "internalType": "string",
          "name": "name",
          "type": "string"
        },
        {
          "internalType": "uint256",
          "name": "balance",
          "type": "uint256"
        },
        {
          "internalType": "uint256",
          "name": "lastReport",
          "type": "uint256"
        }
      ],
      "payable": false,
      "stateMutability": "view",
      "type": "function"
    },
    {
      "constant": false,
      "inputs": [
        {
          "internalType": "address",
          "name": "newAdmin",
          "type": "address"
        }
      ],
      "name": "changeAdmin",
      "outputs": [],
      "payable": false,
      "stateMutability": "nonpayable",
      "type": "function"
    },
    {
      "constant": false,
      "inputs": [
        {
          "internalType": "uint256",
          "name": "newDelay",
          "type": "uint256"
        }
      ],
      "name": "updateMaxDealy",
      "outputs": [],
      "payable": false,
      "stateMutability": "nonpayable",
      "type": "function"
    },
    {
      "constant": false,
      "inputs": [
        {
          "internalType": "uint256",
          "name": "newFee",
          "type": "uint256"
        }
      ],
      "name": "updateFee",
      "outputs": [],
      "payable": false,
      "stateMutability": "nonpayable",
      "type": "function"
    },
    {
      "constant": false,
      "inputs": [
        {
          "internalType": "string",
          "name": "name",
          "type": "string"
        }
      ],
      "name": "createUser",
      "outputs": [],
      "payable": false,
      "stateMutability": "nonpayable",
      "type": "function"
    },
    {
      "constant": false,
      "inputs": [],
      "name": "deposit",
      "outputs": [],
      "payable": true,
      "stateMutability": "payable",
      "type": "function"
    },
    {
      "constant": false,
      "inputs": [
        {
          "internalType": "bool",
          "name": "_signed",
          "type": "bool"
        },
        {
          "internalType": "uint256",
          "name": "_ph",
          "type": "uint256"
        },
        {
          "internalType": "uint256",
          "name": "_hardness",
          "type": "uint256"
        },
        {
          "internalType": "uint256",
          "name": "_tds",
          "type": "uint256"
        },
        {
          "internalType": "string",
          "name": "_companyName",
          "type": "string"
        }
      ],
      "name": "newReport",
      "outputs": [],
      "payable": false,
      "stateMutability": "nonpayable",
      "type": "function"
    },
    {
      "constant": false,
      "inputs": [
        {
          "internalType": "bytes32",
          "name": "key",
          "type": "bytes32"
        },
        {
          "internalType": "bool",
          "name": "_signed",
          "type": "bool"
        }
      ],
      "name": "updateReport",
      "outputs": [],
      "payable": false,
      "stateMutability": "nonpayable",
      "type": "function"
    },
    {
      "constant": false,
      "inputs": [
        {
          "internalType": "bytes32",
          "name": "key",
          "type": "bytes32"
        }
      ],
      "name": "remReport",
      "outputs": [],
      "payable": false,
      "stateMutability": "nonpayable",
      "type": "function"
    },
    {
      "constant": true,
      "inputs": [
        {
          "internalType": "bytes32",
          "name": "key",
          "type": "bytes32"
        }
      ],
      "name": "getReport",
      "outputs": [
        {
          "internalType": "bool",
          "name": "signed",
          "type": "bool"
        },
        {
          "internalType": "uint256",
          "name": "ph",
          "type": "uint256"
        },
        {
          "internalType": "uint256",
          "name": "hardness",
          "type": "uint256"
        },
        {
          "internalType": "uint256",
          "name": "tds",
          "type": "uint256"
        },
        {
          "internalType": "string",
          "name": "companyName",
          "type": "string"
        },
        {
          "internalType": "address",
          "name": "sender",
          "type": "address"
        },
        {
          "internalType": "uint256",
          "name": "timestamp",
          "type": "uint256"
        }
      ],
      "payable": false,
      "stateMutability": "view",
      "type": "function"
    },
    {
      "constant": true,
      "inputs": [],
      "name": "getReportCount",
      "outputs": [
        {
          "internalType": "uint256",
          "name": "count",
          "type": "uint256"
        }
      ],
      "payable": false,
      "stateMutability": "view",
      "type": "function"
    },
    {
      "constant": true,
      "inputs": [
        {
          "internalType": "uint256",
          "name": "index",
          "type": "uint256"
        }
      ],
      "name": "getReportAtIndex",
      "outputs": [
        {
          "internalType": "bytes32",
          "name": "key",
          "type": "bytes32"
        }
      ],
      "payable": false,
      "stateMutability": "view",
      "type": "function"
    },
    {
      "constant": false,
      "inputs": [],
      "name": "withdrawFunds",
      "outputs": [],
      "payable": false,
      "stateMutability": "nonpayable",
      "type": "function"
    }
  ],
  "bytecode": "0x608060405262278d0060045567016345785d8a000060055534801561002357600080fd5b50600680546001600160a01b0319163317905561158b806100456000396000f3fe6080604052600436106100fe5760003560e01c8063a87430ba11610095578063d0e30db011610064578063d0e30db014610537578063d5dc64241461053f578063df023e3914610569578063ed49d2f814610593578063f851a440146105a8576100fe565b8063a87430ba146103fc578063afc0de3e146104ce578063b39c4897146104f8578063cad9642b14610522576100fe565b8063507ffba5116100d1578063507ffba5146102555780635a2550d7146102d25780638f2839701461039f5780639012c4a8146103d2576100fe565b8063046b55f914610103578063171c4f111461013757806324600fc3146102195780633ed3a4031461022e575b600080fd5b34801561010f57600080fd5b506101356004803603604081101561012657600080fd5b508035906020013515156105d9565b005b34801561014357600080fd5b506101616004803603602081101561015a57600080fd5b5035610686565b604051808815151515815260200187815260200186815260200185815260200180602001846001600160a01b03166001600160a01b03168152602001838152602001828103825285818151815260200191508051906020019080838360005b838110156101d85781810151838201526020016101c0565b50505050905090810190601f1680156102055780820380516001836020036101000a031916815260200191505b509850505050505050505060405180910390f35b34801561022557600080fd5b506101356107c9565b34801561023a57600080fd5b5061024361081f565b60408051918252519081900360200190f35b34801561026157600080fd5b506101356004803603602081101561027857600080fd5b81019060208101813564010000000081111561029357600080fd5b8201836020820111156102a557600080fd5b803590602001918460018302840111640100000000831117156102c757600080fd5b509092509050610825565b3480156102de57600080fd5b50610135600480360360a08110156102f557600080fd5b813515159160208101359160408201359160608101359181019060a08101608082013564010000000081111561032a57600080fd5b82018360208201111561033c57600080fd5b8035906020019184600183028401116401000000008311171561035e57600080fd5b91908080601f016020809104026020016040519081016040528093929190818152602001838380828437600092019190915250929550610a32945050505050565b3480156103ab57600080fd5b50610135600480360360208110156103c257600080fd5b50356001600160a01b0316610d1b565b3480156103de57600080fd5b50610135600480360360208110156103f557600080fd5b5035610d3d565b34801561040857600080fd5b5061042f6004803603602081101561041f57600080fd5b50356001600160a01b0316610d59565b60405180856001600160a01b03166001600160a01b0316815260200180602001848152602001838152602001828103825285818151815260200191508051906020019080838360005b83811015610490578181015183820152602001610478565b50505050905090810190601f1680156104bd5780820380516001836020036101000a031916815260200191505b509550505050505060405180910390f35b3480156104da57600080fd5b50610243600480360360208110156104f157600080fd5b5035610e19565b34801561050457600080fd5b506101616004803603602081101561051b57600080fd5b5035610e31565b34801561052e57600080fd5b50610243610f03565b610135610f15565b34801561054b57600080fd5b506101356004803603602081101561056257600080fd5b5035610fc0565b34801561057557600080fd5b506101356004803603602081101561058c57600080fd5b5035611063565b34801561059f57600080fd5b5061024361107f565b3480156105b457600080fd5b506105bd611085565b604080516001600160a01b039092168252519081900360200190f35b6105ea60008363ffffffff61109416565b6106255760405162461bcd60e51b815260040180806020018281038252602981526020018061149e6029913960400191505060405180910390fd5b600082815260076020908152604091829020805484151560ff199091168117825583513381529283018690528284015291517fc86ef61895dc61a0afc6e29a75bf96222a1614ddc85b62101c7322442ecaecef9181900360600190a1505050565b60008080806060818061069f818963ffffffff61109416565b6106da5760405162461bcd60e51b81526004018080602001828103825260268152602001806114fc6026913960400191505060405180910390fd5b60008881526007602090815260409182902080546001808301546002808501546003860154600587015460068801546004890180548c516101009982161599909902600019011695909504601f81018b90048b0288018b01909b528a8752979960ff9097169894979296919593946001600160a01b03909116939185918301828280156107a85780601f1061077d576101008083540402835291602001916107a8565b820191906000526020600020905b81548152906001019060200180831161078b57829003601f168201915b50505050509250975097509750975097509750975050919395979092949650565b6006546001600160a01b031633146107e057600080fd5b6006546040516001600160a01b039091169081904780156108fc02916000818181858888f1935050505015801561081b573d6000803e3d6000fd5b5050565b60055481565b336000908152600860205260409020546001600160a01b031615610886576040805162461bcd60e51b81526020600482015260136024820152725573657220616c72656164792065786973747360681b604482015290519081900360640190fd5b600033838360405160200180846001600160a01b03166001600160a01b031660601b81526014018383808284378083019250505093505050506040516020818303038152906040528051906020012090506108eb8160026110dc90919063ffffffff16565b6108f361133c565b6040518060800160405280336001600160a01b0316815260200185858080601f01602080910402602001604051908101604052809392919081815260200183838082843760009201829052509385525050506020808301829052604092830182905233825260088152919020825181546001600160a01b0319166001600160a01b039091161781558282015180519394508493919261099a9260018501929091019061136d565b5060408201518160020155606082015181600301559050507ffa327e9a92777f9e2f9789db1c446a1826dabd3c4b24e2c1c9fe45914eaabbf233858560405180846001600160a01b03166001600160a01b03168152602001806020018281038252848482818152602001925080828437600083820152604051601f909101601f1916909201829003965090945050505050a150505050565b600554336000908152600860205260409020600201541015610a90576040805162461bcd60e51b81526020600482015260126024820152714e6f7420656e6f7567682062616c616e636560701b604482015290519081900360640190fd5b336000818152600860205260409020546001600160a01b031614610aee576040805162461bcd60e51b815260206004820152601060248201526f155cd95c881b9bdd0818dc99585d195960821b604482015290519081900360640190fd5b610af6611188565b600033428686868660405160200180876001600160a01b03166001600160a01b031660601b815260140186815260200185815260200184815260200183815260200182805190602001908083835b60208310610b635780518252601f199092019160209182019101610b44565b6001836020036101000a0380198251168184511680821785525050505050509050019650505050505050604051602081830303815290604052805190602001209050610bb98160006110dc90919063ffffffff16565b6000818152600760209081526040909120805460ff191688151517815560018101879055600281018690556003810185905583519091610c0091600484019186019061136d565b50338160050160006101000a8154816001600160a01b0302191690836001600160a01b031602179055504281600601819055507f421663111778a9bba292bd65097294930c8a71df5c24becf732735d7d085d8453383898989898960405180886001600160a01b03166001600160a01b031681526020018781526020018615151515815260200185815260200184815260200183815260200180602001828103825283818151815260200191508051906020019080838360005b83811015610cd2578181015183820152602001610cba565b50505050905090810190601f168015610cff5780820380516001836020036101000a031916815260200191505b509850505050505050505060405180910390a150505050505050565b600680546001600160a01b0319166001600160a01b0392909216919091179055565b6006546001600160a01b03163314610d5457600080fd5b600555565b6008602090815260009182526040918290208054600180830180548651600261010094831615949094026000190190911692909204601f81018690048602830186019096528582526001600160a01b03909216949293909290830182828015610e035780601f10610dd857610100808354040283529160200191610e03565b820191906000526020600020905b815481529060010190602001808311610de657829003601f168201915b5050505050908060020154908060030154905084565b6000610e2b818363ffffffff61123f16565b92915050565b600760209081526000918252604091829020805460018083015460028085015460038601546004870180548a516101009782161597909702600019011693909304601f810189900489028601890190995288855260ff9095169792969095939290830182828015610ee35780601f10610eb857610100808354040283529160200191610ee3565b820191906000526020600020905b815481529060010190602001808311610ec657829003601f168201915b50505050600583015460069093015491926001600160a01b031691905087565b6000610f0f6000611263565b90505b90565b60003411610f6a576040805162461bcd60e51b815260206004820152601e60248201527f56616c75652073686f756c642062652067726561746572207468616e20300000604482015290519081900360640190fd5b3360008181526008602090815260409182902060020180543490810190915582519384529083015280517f2cb77763bc1e8490c1a904905c4d74b4269919aca114464f4bb4d911e60de3649281900390910190a1565b610fd160008263ffffffff61126a16565b6000818152600760205260408120805460ff191681556001810182905560028101829055600381018290559061100a60048301826113eb565b506005810180546001600160a01b03191690556000600690910155604080513381526020810183905281517fd455986c2cc1de5cfc398f140fa26b8ecab6cb7b0931041c24039422c4501c66929181900390910190a150565b6006546001600160a01b0316331461107a57600080fd5b600455565b60045481565b6006546001600160a01b031681565b60018201546000906110a857506000610e2b565b60008281526020849052604090205460018401805484929081106110c857fe5b906000526020600020015414905092915050565b806111185760405162461bcd60e51b81526004018080602001828103825260288152602001806114766028913960400191505060405180910390fd5b6111228282611094565b1561115e5760405162461bcd60e51b81526004018080602001828103825260358152602001806115226035913960400191505060405180910390fd5b60018281018054918201815560009081526020808220830184905592815292909152604090912055565b33600090815260086020526040902060030154158015906111bf575060045433600090815260086020526040902060030154429101105b156112275760058054336000818152600860209081526040918290206002018054949094039093559254835191825291810191909152428183015290517fed7a6ac9ce31c663f0032ba60d808de48f854f8bc2d4fee5cfb1ed1533226edb9181900360600190a15b33600090815260086020526040902042600390910155565b600082600101828154811061125057fe5b9060005260206000200154905092915050565b6001015490565b6112748282611094565b6112af5760405162461bcd60e51b81526004018080602001828103825260358152602001806114c76035913960400191505060405180910390fd5b60008260010160016112c085611263565b03815481106112cb57fe5b600091825260208083209091015484835290859052604080832054828452922082905560018501805491935083918390811061130357fe5b600091825260208083209091019290925584815290859052604081205560018401805490611335906000198301611432565b5050505050565b604051806080016040528060006001600160a01b031681526020016060815260200160008152602001600081525090565b828054600181600116156101000203166002900490600052602060002090601f016020900481019282601f106113ae57805160ff19168380011785556113db565b828001600101855582156113db579182015b828111156113db5782518255916020019190600101906113c0565b506113e792915061145b565b5090565b50805460018160011615610100020316600290046000825580601f10611411575061142f565b601f01602090049060005260206000209081019061142f919061145b565b50565b8154818355818111156114565760008381526020902061145691810190830161145b565b505050565b610f1291905b808211156113e7576000815560010161146156fe556e6f7264657265644b65795365742831303029202d204b65792063616e6e6f742062652030783043616e2774207570646174652061207265706f7274207468617420646f65736e27742065786973742e556e6f7264657265644b65795365742831303229202d204b657920646f6573206e6f7420657869737420696e20746865207365742e43616e2774206765742061207265706f7274207468617420646f65736e27742065786973742e556e6f7264657265644b65795365742831303129202d204b657920616c72656164792065786973747320696e20746865207365742ea265627a7a7231582075ec0ee19ae4eac8ce0d855f35dd8db184e6b3c95341d055c6d51213ca6a677b64736f6c63430005100032",
  "source": "pragma solidity 0.5.16;\r\n\r\nimport \"./HitchensUnorderedKeySet.sol\";\r\n\r\n//example of key 0xdeadbeef00000000000000000000000000000000000000000000000000000001\r\n\r\ncontract Report {\r\n    using HitchensUnorderedKeySetLib for HitchensUnorderedKeySetLib.Set;\r\n    HitchensUnorderedKeySetLib.Set reportSet;\r\n    HitchensUnorderedKeySetLib.Set userSet;\r\n\r\n    uint256 public maxDelay = 30 days;\r\n    uint256 public delayFee = 0.1 ether;\r\n    address public admin;\r\n\r\n    struct ReportStruct {\r\n        bool signed;\r\n        uint256 ph;\r\n        uint256 hardness;\r\n        uint256 tds;\r\n        string companyName;\r\n        address sender;\r\n        uint256 timestamp;\r\n    }\r\n\r\n    struct User {\r\n        address account;\r\n        string name;\r\n        uint256 balance;\r\n        uint256 lastReport;\r\n    }\r\n\r\n    mapping(bytes32 => ReportStruct) public reports;\r\n\r\n    mapping(address => User) public users;\r\n\r\n    event LogNewReport(\r\n        address sender,\r\n        bytes32 key,\r\n        bool signed,\r\n        uint256 ph,\r\n        uint256 hardness,\r\n        uint256 tds,\r\n        string companyName\r\n    );\r\n    event LogUpdateReport(address sender, bytes32 key, bool signed);\r\n    event LogRemReport(address sender, bytes32 key);\r\n\r\n    event NewUser(address sender, string name);\r\n    event NewDeposit(address sender, uint256 amount);\r\n    event LateReport(address sender, uint256 feeCharged, uint256 timeStamp);\r\n\r\n    constructor() public {\r\n        admin = msg.sender;\r\n    }\r\n\r\n    modifier onlyWithBalance() {\r\n        require(users[msg.sender].balance >= delayFee, \"Not enough balance\");\r\n        _;\r\n    }\r\n\r\n    modifier onlyAdmin() {\r\n        require(msg.sender == admin);\r\n        _;\r\n    }\r\n\r\n    modifier onlyCreatedUser() {\r\n        require(users[msg.sender].account == msg.sender, \"User not created\");\r\n        _;\r\n    }\r\n\r\n    modifier onlyNewUser() {\r\n        require(users[msg.sender].account == address(0), \"User already exists\");\r\n        _;\r\n    }\r\n\r\n    function changeAdmin(address newAdmin) external {\r\n        admin = newAdmin;\r\n    }\r\n\r\n    function updateMaxDealy(uint256 newDelay) external onlyAdmin {\r\n        maxDelay = newDelay;\r\n    }\r\n\r\n    function updateFee(uint256 newFee) external onlyAdmin {\r\n        delayFee = newFee;\r\n    }\r\n\r\n    function createUser(string calldata name) external onlyNewUser {\r\n        bytes32 key = keccak256(abi.encodePacked(msg.sender, name));\r\n        userSet.insert(key);\r\n\r\n        User memory newUser = User(msg.sender, name, 0, 0);\r\n        users[msg.sender] = newUser;\r\n\r\n        emit NewUser(msg.sender, name);\r\n    }\r\n\r\n    function checkTime() internal {\r\n        if (\r\n            users[msg.sender].lastReport != 0 &&\r\n            users[msg.sender].lastReport + maxDelay < now\r\n        ) {\r\n            // Charge fee to user for the delay\r\n            users[msg.sender].balance -= delayFee;\r\n            emit LateReport(msg.sender, delayFee, now);\r\n        }\r\n        // Update user's last report time\r\n        users[msg.sender].lastReport = now;\r\n    }\r\n\r\n    function deposit() external payable {\r\n        require(msg.value > 0, \"Value should be greater than 0\");\r\n\r\n        users[msg.sender].balance += msg.value;\r\n\r\n        emit NewDeposit(msg.sender, msg.value);\r\n    }\r\n\r\n    function newReport(\r\n        bool _signed,\r\n        uint256 _ph,\r\n        uint256 _hardness,\r\n        uint256 _tds,\r\n        string memory _companyName\r\n    ) public onlyWithBalance onlyCreatedUser {\r\n        checkTime();\r\n\r\n        bytes32 key = keccak256(\r\n            abi.encodePacked(\r\n                msg.sender,\r\n                now,\r\n                _ph,\r\n                _hardness,\r\n                _tds,\r\n                _companyName\r\n            )\r\n        );\r\n\r\n        reportSet.insert(key); // Note that this will fail automatically if the key already exists.\r\n        ReportStruct storage w = reports[key];\r\n        w.signed = _signed;\r\n        w.ph = _ph;\r\n        w.hardness = _hardness;\r\n        w.tds = _tds;\r\n        w.companyName = _companyName;\r\n        w.sender = msg.sender;\r\n        w.timestamp = now;\r\n        emit LogNewReport(\r\n            msg.sender,\r\n            key,\r\n            _signed,\r\n            _ph,\r\n            _hardness,\r\n            _tds,\r\n            _companyName\r\n        );\r\n    }\r\n\r\n    function updateReport(bytes32 key, bool _signed) public {\r\n        require(\r\n            reportSet.exists(key),\r\n            \"Can't update a report that doesn't exist.\"\r\n        );\r\n        ReportStruct storage w = reports[key];\r\n        w.signed = _signed;\r\n        emit LogUpdateReport(msg.sender, key, _signed);\r\n    }\r\n\r\n    function remReport(bytes32 key) public {\r\n        reportSet.remove(key); // Note that this will fail automatically if the key doesn't exist\r\n        delete reports[key];\r\n        emit LogRemReport(msg.sender, key);\r\n    }\r\n\r\n    function getReport(bytes32 key)\r\n        public\r\n        view\r\n        returns (\r\n            bool signed,\r\n            uint256 ph,\r\n            uint256 hardness,\r\n            uint256 tds,\r\n            string memory companyName,\r\n            address sender,\r\n            uint256 timestamp\r\n        )\r\n    {\r\n        require(\r\n            reportSet.exists(key),\r\n            \"Can't get a report that doesn't exist.\"\r\n        );\r\n        ReportStruct storage w = reports[key];\r\n        return (\r\n            w.signed,\r\n            w.ph,\r\n            w.hardness,\r\n            w.tds,\r\n            w.companyName,\r\n            w.sender,\r\n            w.timestamp\r\n        );\r\n    }\r\n\r\n    function getReportCount() public view returns (uint256 count) {\r\n        return reportSet.count();\r\n    }\r\n\r\n    function getReportAtIndex(uint256 index) public view returns (bytes32 key) {\r\n        return reportSet.keyAtIndex(index);\r\n    }\r\n\r\n    function withdrawFunds() external onlyAdmin {\r\n        address payable to = address(uint160(admin));\r\n        to.transfer(address(this).balance);\r\n    }\r\n}\r\n",
  "sourcePath": "G:/ERM6/erm/solidity/contracts/reports_crud.sol",
  "compiler": {
    "name": "solc",
    "version": "0.5.16+commit.9c3226ce.Emscripten.clang"
  },
  "schemaVersion": "3.0.21",
  "updatedAt": "2020-01-24T19:01:14.717Z",
  "networkType": "ethereum",
  "devdoc": {
    "methods": {}
  },
  "userdoc": {
    "methods": {}
  }
}